:100000000C943A000C94A9030C9457000C945700DC
:100010000C9457000C9457000C9457000C94570004
:100020000C9457000C9457000C9457000C945700F4
:100030000C9457000C9457000C9457000C945700E4
:100040000C9457000C9457000C9457000C945700D4
:100050000C9457000C9457000C9457000C945700C4
:100060000C9457000C9457001F1C1F1E1F1E1F1FAF
:100070001E1F1E1F11241FBECFEFD8E0DEBFCDBF55
:1000800014E0A0E0B1E0EAE7F4E102C005900D92CF
:10009000A035B107D9F724E0A0E5B4E001C01D9276
:1000A000A635B207E1F70E94DE030C943B0A0C94DC
:1000B00000001092B90080EC8093B800089594EA93
:1000C0009093BC00ECEBF0E090819923ECF79091D9
:1000D000B900987F983011F09031A1F48093BB0063
:1000E00084E88093BC00ECEBF0E080818823ECF79F
:1000F0009091B900987F983139F081E0903429F4DB
:1001000080E0089581E0089580E00895CF93DF9323
:10011000ECEBF0E024EAA9EBB0E0CBEBD0E034E884
:1001200044E9208390819923ECF79C91987F983043
:1001300011F09031B1F78883308390819923ECF7E7
:100140009C91987F903211F0983529F440839081EA
:1001500094FDFDCFE6CFDF91CF9108950E945F001F
:10016000089584E98093BC00ECEBF0E0808184FD8D
:10017000FDCF08958093BB0084E88093BC00ECEB36
:10018000F0E080818823ECF79091B900987F81E0BE
:10019000983209F480E0089584EC8093BC00ECEB85
:1001A000F0E080818823ECF78091BB00089584E81B
:1001B0008093BC00ECEBF0E080818823ECF7809129
:1001C000BB0008950E94590085E38A95F1F700006D
:1001D000089550E0623070F0E8E6F0E02EEF260F70
:1001E00030E027593F4F9491490F511D3196E21746
:1001F000F307C9F7633028F0982F937011F44F5F1D
:100200005F4F90E06DE671E0869F9001879F300D13
:10021000969F300D1124B9016B5F7F4F03969C01AF
:1002200012F42D5F3F4F3595279535952795260F6D
:10023000371F420F531F9A01A3E9B4E20E9420071F
:10024000281B390B36952795820F931F9695879516
:10025000969587959C01220F331F220F331F220F83
:10026000331FB901681B790BCB01742F781B872FC3
:100270000895CF92DF92EF92FF920F931F93CF9347
:10028000DF939BE39E1508F4DDC00C3308F0DCC05F
:10029000283108F0DBC09FEF940F9F3108F0D8C0E1
:1002A0009FEF960F9C3008F0D5C0843608F0D4C07C
:1002B000C22FD42F162FF82E623009F057C083704A
:1002C00009F054C04D3109F051C04DE162E08F2D6D
:1002D0000E94E900182F80ED0E94860080E00E94B5
:1002E000BA00DAE08E2D6D2F0E94F506982F990F37
:1002F000890F880F8E0D0E94BA00802F6D2F0E94EB
:10030000F506982F990F890F880F800F0E94BA0069
:100310008C2F6D2F0E94F506982F990F890F880F4B
:100320008C0F0E94BA00812F6D2F0E94F506982F26
:10033000990F890F880F810F0E94BA0089E20E94ED
:10034000BA0082E00E94BA008F2D6D2F0E94F50640
:10035000982F990F890F880F8F0D0E94BA0080E0A7
:100360000E94BA000E94B10081E079C0E12FF0E064
:10037000E959FF4FE491ED1708F470C04D2F612F3C
:100380008F2D0E94E900C82E80ED0E94860080E03B
:100390000E94BA000F2EFAE0DF2EF02D8E2D6D2D6B
:1003A0000E94F506982F990F890F880F8E0D0E94D5
:1003B000BA00802F6D2D0E94F506982F990F890F96
:1003C000880F800F0E94BA008C2F6D2D0E94F506B9
:1003D000982F990F890F880F8C0F0E94BA008C2DCF
:1003E0006D2D0E94F506982F990F890F880F8C0D9F
:1003F0000E94BA008D2F6D2D0E94F506982F990F3F
:10040000890F880F8D0F0E94BA00812F6D2D0E94D9
:10041000F506982F990F890F880F810F0E94BA0057
:100420008F2D6D2D0E94F506982F990F890F880F3B
:100430008F0D0E94BA0080E00E94BA000E94B100B5
:1004400081E00DC088E00BC088E009C088E007C0EB
:1004500088E005C088E003C088E001C080E0DF914B
:10046000CF911F910F91FF90EF90DF90CF90089563
:100470006F927F928F929F92AF92BF92CF92DF92B4
:10048000EF92FF920F931F93CF93DF934C013B01A9
:10049000EA01590180ED0E94860080E00E94BA00C6
:1004A0000E94B10081ED0E94AE000E94CC008F77C7
:1004B000982F92959F70292F220F920F990F891BC9
:1004C000F60180830E94CC00982F92959F70292F6F
:1004D000220F920F990F891BF70180830E94CC0095
:1004E000982F92959F70292F220F920F990F891B99
:1004F000F80180830E94CC00982F92959F70292F3D
:10050000220F920F990F891BF40180830E94CC0067
:10051000982F92959F70292F220F920F990F891B68
:10052000F50180830E94CC00982F92959F70292F0F
:10053000220F920F990F891B88830E94D700982F52
:1005400092959F70292F220F920F990F891BF3010B
:1005500080830E94B100DF91CF911F910F91FF9096
:10056000EF90DF90CF90BF90AF909F908F907F9053
:100570006F9008959C0140E050E060E472E48FE0E9
:1005800090E00E940107215031093093C50020936B
:10059000C40088E18093C1008EE08093C20008957A
:1005A000E0ECF0E0908195FFFDCF8093C60080E005
:1005B0000895E0ECF0E080818823ECF78091C6009C
:1005C0000895CF93DF93EC018881882331F0219641
:1005D0000E94D00289918111FBCF80E0DF91CF9101
:1005E0000895ECE7F0E0808180648083EAE7F0E042
:1005F0008081876880830895ECE7F0E09081907FA8
:1006000090839081892B8083EAE7F0E08081806489
:100610008083808186FDFDCF809178009091790064
:100620000895EF92FF920F931F93CF93DF93CDB76F
:10063000DEB764970FB6F894DEBF0FBECDBF80E083
:100640000E94FC028C011F938F938EE091E09F9398
:100650008F93CE0101967C019F938F930E94510747
:10066000C7010E94E1020F900F900F900F900F9022
:100670000F90043F114060F45B9A81E090E090930A
:1006800055048093540487E191E00E94E10209C07F
:100690005B98109255041092540485E391E00E94F7
:1006A000E10264960FB6F894DEBF0FBECDBFDF91B6
:1006B000CF911F910F91FF90EF900895809150047A
:1006C000909151040197F9F481E591E00E94E102D3
:1006D000EAE8F0E084EA91E0918380832FEF87EAF3
:1006E00091E6215080409040E1F700C0000088EC86
:1006F00090E09183808384E691E00E94E102109271
:100700005104109250048091520490915304019727
:10071000F9F487E791E00E94E102E8E8F0E084EA7A
:1007200091E0918380832FEF87EA91E6215080400A
:100730009040E1F700C0000088EC90E09183808356
:100740008AE891E00E94E102109253041092520450
:1007500008951F920F920FB60F9211242F933F937B
:100760004F935F936F937F938F939F93AF93BF93B9
:10077000EF93FF938091540490915504019729F4CD
:1007800058988DE991E00E94E10281E090E0909319
:100790005304809352040E945E03FF91EF91BF9136
:1007A000AF919F918F917F916F915F914F913F9109
:1007B0002F910F900FBE0F901F901895CF93DF933E
:1007C000CDB7DEB7CE56D1090FB6F894DEBF0FBE57
:1007D000CDBFFE01B19687E0DF011D928A95E9F752
:1007E00052985A9A26982E9A3998419A3A98429A4B
:1007F0003B98439A509A5898519A5998539A5B98B3
:10080000549A5C98559A5D9880E895E20E94BA02E5
:100810000E94F102E9E6F0E08081886080838DB378
:1008200083608DBB789484B1866084B9E0E8F0E0A1
:100830008081826A8083E1E8F0E080818B6180833F
:1008400087E893E1909387008093860088EC90E09E
:10085000909389008093880090938B0080938A0006
:100860000E94E20078948EE0E0E0F1E0DE01A65A1A
:10087000BF4F01900D928A95E1F7A9961FAEA997F7
:10088000AA961FAEAA97AB961FAEAB97AC961FAEBB
:10089000AC97AD961FAEAD97AE961FAEAE97AF9626
:1008A0001FAEAF97EFE3FCE93197F1F700C000000E
:1008B00088EB91E00E94E102FFEF26E781E0F15032
:1008C00020408040E1F700C0000084ED91E00E94EC
:1008D000E1020E94D902813321F0823309F4B7C0CA
:1008E000B2C086EE91E00E94E10280E192E00E94B7
:1008F000E1029FEFA6E7B1E09150A040B040E1F7E0
:1009000000C00000FE0131967F018E01075F1F4F7E
:100910005F010E94D902D5018D935D01A017B10737
:10092000C1F75701F50181915F010E94D002A01625
:10093000B106C1F7FE017196D7018D917D018053FB
:100940008193A017B107C1F78989880F982F990F54
:10095000990F890F9A89890FAB968FAFAB978C89C6
:10096000880F982F990F990F890F9D89890FAA9643
:100970008FAFAA978F89880F982F990F990F890F9A
:10098000988D890FA9968FAFA9978BE192E00E946D
:10099000E10284E492E00E94E102BFEFE6E7F1E0C9
:1009A000B150E040F040E1F700C000007E0121E1DD
:1009B000E20EF11C58010E94D902D5018D935D0110
:1009C000EA16FB06C1F75801F50181915F010E940B
:1009D000D002EA14FB04C1F7FE017996D8018D918B
:1009E0008D0180538193EA16FB06C1F7898D880F2C
:1009F000282F220F220F280F8A8D280FAC962FAF99
:100A0000AC978C8D880F082F000F000F080F8D8D6D
:100A1000080FAD960FAFAD978F8D880FE82EEE0CB7
:100A2000EE0CE80E88A1E80EAE96EFAEAE97AB9650
:100A30004FADAB97AA966FADAA97A9968FADA99720
:100A40000E94390104C08FE492E00E94E102EFE3CA
:100A5000FCE93197F1F700C0000080E692E00E94C7
:100A6000E102FFEF26E781E0F15020408040E1F70E
:100A700000C0000084ED91E00E94E1020E94D902D2
:100A8000813321F0823309F4E5C0DAC082E992E0D3
:100A90000E94E1028BEB92E00E94E1020E94D902E7
:100AA0000F2EF0ED6F2EF02D680E8FED92E00E946C
:100AB000E10289EE92E00E94E10286EF92E00E945C
:100AC000E10281E093E00E94E1028DE093E00E9468
:100AD000E1028CE193E00E94E10288E293E00E944F
:100AE000E10285E393E00E94E10297E0691619F0C4
:100AF000611009C01BC0FE01B19680E081938F5F39
:100B00008730E1F713C08E010F5D1F4F5801A60C0F
:100B1000B11C0E94D902F82E0E94D00280ED8F0DE8
:100B2000D8018D938D01AA16BB0699F781E493E055
:100B30000E94E10284E793E00E94E102BFEFE6E752
:100B4000F1E0B150E040F040E1F700C000008E015C
:100B5000075F1F4F7E012EE0E20EF11C58010E943C
:100B6000D902D5018D935D01EA16FB06C1F7580144
:100B7000F50181915F010E94D002AE14BF04C1F75C
:100B80002E01F9E14F0E511CD201F80181918053E1
:100B90008D93EE16FF06D1F7898D880FB82EBB0C0A
:100BA000BB0C8B0DBA8CB80E8C8D880FA82EAA0C9E
:100BB000AA0C8A0DAD8CA80EAE961FAEAE978CE730
:100BC00093E00E94E10284E793E00E94E1022FEFAC
:100BD00086E791E0215080409040E1F700C000009E
:100BE00048010E94D902D4018D934D01AE15BF0575
:100BF000C1F74801F40181914F010E94D002E8142D
:100C0000F904C1F7D8018D918D018053F2018193D0
:100C10002F01AE15BF05B1F7898D880F382E330C23
:100C2000330C830D3A8C380E8C8D880F282E220CB5
:100C3000220C820D2D8C280EAE961FAEAE970FC0E3
:100C40008FE492E00E94E102212CA12C312CB12CE6
:100C5000612C05C0212CA12C312CB12C612C0F2E24
:100C6000FCEA4F2EF3E05F2EF02D4E01F8E28F0EDE
:100C7000911C712CCE0183599F4F6C01DE01A45948
:100C8000BF4F7D018E0105591F4F9E0126593F4FD1
:100C9000AE0147595F4FBE0168597F4F01960E94D0
:100CA0003802AE968FADAE971F928F93AD968FADF3
:100CB000AD971F928F93AC968FADAC971F928F9389
:100CC000A9968FADA9971F928F93AA968FADAA97D9
:100CD0001F928F93AB968FADAB971F928F93AF966A
:100CE000EFADAF97F0E0EE0FFF1F8AE590E08C0FBD
:100CF0009D1FE80FF91F81818F9380818F935F92F1
:100D00004F929F928F920E945107C4010E94E1026C
:100D100083EE91E00E94E1020FB6F894DEBF0FBEB1
:100D2000CDBF161417042CF50A5411097801E60CEE
:100D3000F71CF80191918F01AF968FADAF97981383
:100D400015C0AC968FADAC978B1578F0AD969FAD76
:100D5000AD979A1550F0381640F0291630F085EC12
:100D600093E00E94E102589A01C05898E016F106FB
:100D700001F7FFEF23ED80E3F15020408040E1F7E1
:100D800000C000000E9411034E992AC09FEFA9EFF6
:100D9000B0E09150A040B040E1F700C000004E9993
:100DA0001FC0E1E0F0E0F0935104E09350040E9492
:100DB0005E038091540490915504019779F489ED74
:100DC00093E00E94E102F8E0FBB92FEF83ED90E39E
:100DD000215080409040E1F700C000004E9BFECFC4
:100DE00081EF93E00E94E10245CF991B79E004C0B6
:100DF000991F961708F0961B881F7A95C9F780955A
:100E00000895052E97FB1EF400940E94180757FDC5
:100E100007D00E942F0707FC03D04EF40C9418074C
:100E200050954095309521953F4F4F4F5F4F089516
:100E300090958095709561957F4F8F4F9F4F089546
:100E4000A29FB001B39FC001A39F700D811D11240B
:100E5000911DB29F700D811D1124911D0895A1E275
:100E60001A2EAA1BBB1BFD010DC0AA1FBB1FEE1F24
:100E7000FF1FA217B307E407F50720F0A21BB30B6F
:100E8000E40BF50B661F771F881F991F1A9469F7EB
:100E900060957095809590959B01AC01BD01CF0147
:100EA0000895AEE0B0E0E7E5F7E00C94120A0D8992
:100EB0001E8986E08C831A8309838FEF9FE79E83C8
:100EC0008D83AE01475E5F4F6F89788DCE010196AD
:100ED0000E947307EF81F885E00FF11F10822E96B4
:100EE000E4E00C942E0AABE0B0E0E9E7F7E00C9404
:100EF000040A6C017B018A01FC011782168283813E
:100F000081FFCCC1CE0101963C01F6019381F7012E
:100F100093FD859193FF81917F01882309F4BAC1E4
:100F2000853239F493FD859193FF81917F0185325C
:100F300029F4B60190E00E946A09E7CF912C212C98
:100F4000312CFFE1F315D8F08B3279F038F4803290
:100F500079F08332A1F4232D20611DC08D3261F020
:100F6000803369F4232D216016C0832D8260382ED2
:100F7000E32DE4603E2E2AC0F32DF8601DC037FC3F
:100F80002DC020ED280F2A3040F08E32B9F436FC07
:100F900081C1232D2064322E19C036FE06C08AE09E
:100FA000989E200D1124922E11C0EAE02E9E200D55
:100FB0001124222EF32DF0623F2E08C08C3621F42E
:100FC000832D8068382E02C0883641F4F70193FDE6
:100FD000859193FF81917F018111B3CF982F9F7DE0
:100FE0009554933028F40C5F1F4F9FE399830DC0F5
:100FF000833631F0833771F0833509F059C021C051
:10100000F801808189830E5F1F4F88248394912C7F
:10101000530113C02801F2E04F0E511CF801A080CB
:10102000B18036FE03C0692D70E002C06FEF7FEF24
:10103000C5010E945F094C018201F32DFF773F2E0D
:1010400016C0280122E0420E511CF801A080B18098
:1010500036FE03C0692D70E002C06FEF7FEFC5015F
:101060000E9454094C01F32DF0683F2E820133FC9D
:101070001BC0822D90E088169906B0F4B60180E27C
:1010800090E00E946A092A94F4CFF50137FC85911B
:1010900037FE81915F01B60190E00E946A0921103C
:1010A0002A9421E0821A91088114910471F7E8C012
:1010B000843611F0893641F5F80137FE07C06081AA
:1010C0007181828193810C5F1F4F08C060817181A3
:1010D000072E000C880B990B0E5F1F4FF32DFF7628
:1010E0003F2E97FF09C090958095709561957F4F31
:1010F0008F4F9F4FF0683F2E2AE030E0A3010E94FF
:10110000A609882E861845C0853731F4232D2F7EF9
:10111000B22E2AE030E025C0932D997FB92E8F366C
:10112000C1F018F4883579F0B5C0803719F08837E8
:1011300021F0B0C0E92FE061BE2EB4FE0DC0FB2D42
:10114000F460BF2E09C034FE0AC0292F2660B22EDB
:1011500006C028E030E005C020E130E002C020E118
:1011600032E0F801B7FE07C060817181828193810E
:101170000C5F1F4F06C06081718180E090E00E5FC0
:101180001F4FA3010E94A609882E8618FB2DFF770A
:101190003F2E36FE0DC0232D2E7FA22E891458F42B
:1011A00034FE0BC032FC09C0832D8E7EA82E05C0F4
:1011B000B82CA32C03C0B82C01C0B92CA4FE0FC0BE
:1011C000FE01E80DF11D8081803321F49A2D997E76
:1011D000A92E09C0A2FE06C0B394B39404C08A2D00
:1011E000867809F0B394A3FC11C0A0FE06C0B21427
:1011F00088F4280C922C9B180EC0B21460F4B6012F
:1012000080E290E00E946A09B394F7CFB21418F418
:101210002B1802C0982C212CA4FE10C0B60180E32C
:1012200090E00E946A09A2FE17C0A1FC03C088E7F3
:1012300090E002C088E590E0B6010CC08A2D867867
:1012400059F0A1FE02C08BE201C080E2A7FC8DE252
:10125000B60190E00E946A09891438F4B60180E36F
:1012600090E00E946A099A94F7CF8A94F301E80DFE
:10127000F11D8081B60190E00E946A098110F5CFCE
:10128000222009F442CEB60180E290E00E946A0971
:101290002A94F6CFF6018681978102C08FEF9FEFE7
:1012A0002B96E2E10C94200AFC01059061507040FD
:1012B0000110D8F7809590958E0F9F1F0895FC011F
:1012C0006150704001900110D8F7809590958E0F75
:1012D0009F1F08950F931F93CF93DF93FB012381EB
:1012E00021FD03C08FEF9FEF2CC022FF16C0468167
:1012F0005781248135814217530744F4A081B1817D
:101300009D012F5F3F4F318320838C93268137814E
:101310002F5F3F4F3783268314C08B01EC01FB0105
:101320000084F185E02D0995892BE1F6D801169608
:101330008D919C911797019617969C938E93169773
:10134000CE01DF91CF911F910F910895FA01AA2745
:10135000283051F1203181F1E8946F936E7F6E5FF8
:101360007F4F8F4F9F4FAF4FB1E03ED0B4E03CD0A6
:10137000670F781F891F9A1FA11D680F791F8A1F89
:10138000911DA11D6A0F711D811D911DA11D20D0F0
:1013900009F468943F912AE0269F11243019305DAA
:1013A0003193DEF6CF010895462F4770405D41939B
:1013B000B3E00FD0C9F7F6CF462F4F70405D4A33E8
:1013C00018F0495D31FD4052419302D0A9F7EACFB0
:1013D000B4E0A6959795879577956795BA95C9F7DF
:1013E00000976105710508959B01AC010A2E0694D2
:1013F0005795479537952795BA95C9F7620F731F8B
:10140000841F951FA01D08952F923F924F925F92C7
:101410006F927F928F929F92AF92BF92CF92DF9204
:10142000EF92FF920F931F93CF93DF93CDB7DEB769
:10143000CA1BDB0B0FB6F894DEBF0FBECDBF0994FD
:101440002A88398848885F846E847D848C849B8454
:10145000AA84B984C884DF80EE80FD800C811B8162
:10146000AA81B981CE0FD11D0FB6F894DEBF0FBE91
:0A147000CDBFED010895F894FFCF01
:10147A001B042304290430043A04410449044C445B
:10148A0052203A202564000D0A4C75636573206466
:10149A006520706174696F20656E63656E64696446
:1014AA0061730D0A000D0A4C75636573206465202B
:1014BA00706174696F2061706167616461730D0A9C
:1014CA00000D0A50756572746120616269657274F3
:1014DA00610D0A000D0A50756572746120636572A8
:1014EA00726164610D0A000D0A506F72746F6E208A
:1014FA006162696572746F0D0A000D0A506F727429
:10150A006F6E206365727261646F0D0A000D0A4C7A
:10151A00757A2064652067617261676520707265FB
:10152A006E646964610D0A00446573656120636FC6
:10153A006E66696775726172206C6120686F72618C
:10154A003F0D0A0020312E205349202D20322E2013
:10155A004E4F200D0A000A496E6772657365206650
:10156A006563686120636F6E20656C2073696775B7
:10157A0069656E746520666F726D61746F0D0A001D
:10158A0064642E6D6D2E61610D0A000A496E6772E0
:10159A0065736520686F726120636F6E20656C20C9
:1015AA007369677569656E746520666F726D6174BB
:1015BA006F0D0A0068682E6D6D2E73730D0A007622
:1015CA00616C6F7220696E76616C69646F0D0A00D6
:1015DA000A446573656120636F6E66696775726137
:1015EA007220686F726172696F2064656C2073691A
:1015FA007374656D6120646520726965676F3F0D5C
:10160A000A000A496E67726573652063616E7469C0
:10161A006461642064652076656365732061206C6B
:10162A00612073656D616E610D0A005369206465FE
:10163A0073656120746F646F73206C6F73206469C3
:10164A00617320696E677265736520370D0A0049F8
:10165A006E67726573650D0A00302E20446F6D69DE
:10166A006E676F0D0A00312E204C756E65730D0A78
:10167A0000322E204D61727465730D0A00332E20DC
:10168A004D696572636F6C65730D0A00342E204ACA
:10169A0075657665730D0A00352E20566965726E7A
:1016AA0065730D0A00362E2053616261646F0D0A5C
:1016BA00000A496E677265736520686F72612064FB
:1016CA006520696E6963696F20636F6E20656C209F
:1016DA007369677569656E746520666F726D61748A
:1016EA006F0D0A0068682E6D6D0D0A000A496E6753
:1016FA007265736520686F72612064652066696E21
:10170A0020636F6E20656C207369677569656E74F6
:10171A006520666F726D61746F0D0A002533732040
:10172A002025642F25642F323025642025643A252C
:10173A00643A2564000D0A526965676F20656E6315
:10174A00656E6469646F0D0A004C757A20646520C1
:10175A006761726167652061706167616461200A0F
:10176A00002D2D2D2D2D2D2D2D2D2D2D2D2D2D2DCC
:10177A002D2D2D2D2D2D2D2D2D2D2D2D2D2D2D2D8F
:10178A002D2D2D2D2D2D2D2D2D2D00446F6D696E96
:10179A00676F004C756E6573004D617274657300F6
:1017AA004D696572636F6C6573004A75657665731A
:1017BA0000566965726E65730053616261646F00F9
:00000001FF
